{
    "contractName": "TRC20",
    "abi": [
        {
            "anonymous": false,
            "inputs": [
                {
                    "indexed": true,
                    "internalType": "address",
                    "name": "_user",
                    "type": "address"
                }
            ],
            "name": "AddedBlackList",
            "type": "event"
        },
        {
            "anonymous": false,
            "inputs": [
                {
                    "indexed": true,
                    "internalType": "address",
                    "name": "owner",
                    "type": "address"
                },
                {
                    "indexed": true,
                    "internalType": "address",
                    "name": "spender",
                    "type": "address"
                },
                {
                    "indexed": false,
                    "internalType": "uint256",
                    "name": "value",
                    "type": "uint256"
                }
            ],
            "name": "Approval",
            "type": "event"
        },
        {
            "anonymous": false,
            "inputs": [
                {
                    "indexed": true,
                    "internalType": "address",
                    "name": "_blackListedUser",
                    "type": "address"
                },
                {
                    "indexed": false,
                    "internalType": "uint256",
                    "name": "_balance",
                    "type": "uint256"
                }
            ],
            "name": "DestroyedBlackFunds",
            "type": "event"
        },
        {
            "anonymous": false,
            "inputs": [
                {
                    "indexed": false,
                    "internalType": "uint256",
                    "name": "value",
                    "type": "uint256"
                }
            ],
            "name": "Issue",
            "type": "event"
        },
        {
            "anonymous": false,
            "inputs": [
                {
                    "indexed": true,
                    "internalType": "address",
                    "name": "previousOwner",
                    "type": "address"
                },
                {
                    "indexed": true,
                    "internalType": "address",
                    "name": "newOwner",
                    "type": "address"
                }
            ],
            "name": "OwnershipTransferred",
            "type": "event"
        },
        {
            "anonymous": false,
            "inputs": [
                {
                    "indexed": false,
                    "internalType": "uint256",
                    "name": "value",
                    "type": "uint256"
                }
            ],
            "name": "Redeem",
            "type": "event"
        },
        {
            "anonymous": false,
            "inputs": [
                {
                    "indexed": true,
                    "internalType": "address",
                    "name": "_user",
                    "type": "address"
                }
            ],
            "name": "RemovedBlackList",
            "type": "event"
        },
        {
            "anonymous": false,
            "inputs": [
                {
                    "indexed": true,
                    "internalType": "address",
                    "name": "from",
                    "type": "address"
                },
                {
                    "indexed": true,
                    "internalType": "address",
                    "name": "to",
                    "type": "address"
                },
                {
                    "indexed": false,
                    "internalType": "uint256",
                    "name": "value",
                    "type": "uint256"
                }
            ],
            "name": "Transfer",
            "type": "event"
        },
        {
            "inputs": [
                {
                    "internalType": "address",
                    "name": "_evilUser",
                    "type": "address"
                }
            ],
            "name": "addBlackList",
            "outputs": [],
            "stateMutability": "nonpayable",
            "type": "function"
        },
        {
            "inputs": [
                {
                    "internalType": "address",
                    "name": "owner",
                    "type": "address"
                },
                {
                    "internalType": "address",
                    "name": "spender",
                    "type": "address"
                }
            ],
            "name": "allowance",
            "outputs": [
                {
                    "internalType": "uint256",
                    "name": "",
                    "type": "uint256"
                }
            ],
            "stateMutability": "view",
            "type": "function"
        },
        {
            "inputs": [
                {
                    "internalType": "address",
                    "name": "spender",
                    "type": "address"
                },
                {
                    "internalType": "uint256",
                    "name": "value",
                    "type": "uint256"
                }
            ],
            "name": "approve",
            "outputs": [
                {
                    "internalType": "bool",
                    "name": "",
                    "type": "bool"
                }
            ],
            "stateMutability": "nonpayable",
            "type": "function"
        },
        {
            "inputs": [
                {
                    "internalType": "address",
                    "name": "account",
                    "type": "address"
                }
            ],
            "name": "balanceOf",
            "outputs": [
                {
                    "internalType": "uint256",
                    "name": "",
                    "type": "uint256"
                }
            ],
            "stateMutability": "view",
            "type": "function"
        },
        {
            "inputs": [
                {
                    "internalType": "address",
                    "name": "spender",
                    "type": "address"
                },
                {
                    "internalType": "uint256",
                    "name": "subtractedValue",
                    "type": "uint256"
                }
            ],
            "name": "decreaseAllowance",
            "outputs": [
                {
                    "internalType": "bool",
                    "name": "",
                    "type": "bool"
                }
            ],
            "stateMutability": "nonpayable",
            "type": "function"
        },
        {
            "inputs": [
                {
                    "internalType": "address",
                    "name": "_blackListedUser",
                    "type": "address"
                }
            ],
            "name": "destroyBlackFunds",
            "outputs": [],
            "stateMutability": "nonpayable",
            "type": "function"
        },
        {
            "inputs": [
                {
                    "internalType": "address",
                    "name": "spender",
                    "type": "address"
                },
                {
                    "internalType": "uint256",
                    "name": "addedValue",
                    "type": "uint256"
                }
            ],
            "name": "increaseAllowance",
            "outputs": [
                {
                    "internalType": "bool",
                    "name": "",
                    "type": "bool"
                }
            ],
            "stateMutability": "nonpayable",
            "type": "function"
        },
        {
            "inputs": [
                {
                    "internalType": "address",
                    "name": "",
                    "type": "address"
                }
            ],
            "name": "isBlackListed",
            "outputs": [
                {
                    "internalType": "bool",
                    "name": "",
                    "type": "bool"
                }
            ],
            "stateMutability": "view",
            "type": "function"
        },
        {
            "inputs": [
                {
                    "internalType": "uint256",
                    "name": "amount",
                    "type": "uint256"
                }
            ],
            "name": "issue",
            "outputs": [],
            "stateMutability": "nonpayable",
            "type": "function"
        },
        {
            "inputs": [],
            "name": "owner",
            "outputs": [
                {
                    "internalType": "address",
                    "name": "",
                    "type": "address"
                }
            ],
            "stateMutability": "view",
            "type": "function"
        },
        {
            "inputs": [
                {
                    "internalType": "uint256",
                    "name": "amount",
                    "type": "uint256"
                }
            ],
            "name": "redeem",
            "outputs": [],
            "stateMutability": "nonpayable",
            "type": "function"
        },
        {
            "inputs": [
                {
                    "internalType": "address",
                    "name": "_clearedUser",
                    "type": "address"
                }
            ],
            "name": "removeBlackList",
            "outputs": [],
            "stateMutability": "nonpayable",
            "type": "function"
        },
        {
            "inputs": [],
            "name": "totalSupply",
            "outputs": [
                {
                    "internalType": "uint256",
                    "name": "",
                    "type": "uint256"
                }
            ],
            "stateMutability": "view",
            "type": "function"
        },
        {
            "inputs": [
                {
                    "internalType": "address",
                    "name": "recipient",
                    "type": "address"
                },
                {
                    "internalType": "uint256",
                    "name": "amount",
                    "type": "uint256"
                }
            ],
            "name": "transfer",
            "outputs": [
                {
                    "internalType": "bool",
                    "name": "",
                    "type": "bool"
                }
            ],
            "stateMutability": "nonpayable",
            "type": "function"
        },
        {
            "inputs": [
                {
                    "internalType": "address",
                    "name": "sender",
                    "type": "address"
                },
                {
                    "internalType": "address",
                    "name": "recipient",
                    "type": "address"
                },
                {
                    "internalType": "uint256",
                    "name": "amount",
                    "type": "uint256"
                }
            ],
            "name": "transferFrom",
            "outputs": [
                {
                    "internalType": "bool",
                    "name": "",
                    "type": "bool"
                }
            ],
            "stateMutability": "nonpayable",
            "type": "function"
        },
        {
            "inputs": [
                {
                    "internalType": "address",
                    "name": "newOwner",
                    "type": "address"
                }
            ],
            "name": "transferOwnership",
            "outputs": [],
            "stateMutability": "nonpayable",
            "type": "function"
        }
    ],
    "bytecode": "608060405234801561001057600080fd5b50600080546001600160a01b03191633179055610d89806100326000396000f3fe608060405234801561001057600080fd5b50600436106101005760003560e01c8063a9059cbb11610097578063e47d606011610066578063e47d606014610253578063e4997dc514610276578063f2fde38b14610289578063f3bdc2281461029c57600080fd5b8063a9059cbb146101e1578063cc872b66146101f4578063db006a7514610207578063dd62ed3e1461021a57600080fd5b806339509351116100d3578063395093511461016757806370a082311461017a5780638da5cb5b146101a3578063a457c2d7146101ce57600080fd5b8063095ea7b3146101055780630ecb93c01461012d57806318160ddd1461014257806323b872dd14610154575b600080fd5b610118610113366004610c2a565b6102af565b60405190151581526020015b60405180910390f35b61014061013b366004610c54565b6102c6565b005b6004545b604051908152602001610124565b610118610162366004610c6f565b61032c565b610118610175366004610c2a565b61037d565b610146610188366004610c54565b6001600160a01b031660009081526002602052604090205490565b6000546101b6906001600160a01b031681565b6040516001600160a01b039091168152602001610124565b6101186101dc366004610c2a565b6103b3565b6101186101ef366004610c2a565b6103e9565b610140610202366004610cab565b6103f6565b610140610215366004610cab565b610480565b610146610228366004610cc4565b6001600160a01b03918216600090815260036020908152604080832093909416825291909152205490565b610118610261366004610c54565b60016020526000908152604090205460ff1681565b610140610284366004610c54565b610502565b610140610297366004610c54565b610562565b6101406102aa366004610c54565b6105e7565b60006102bc33848461068d565b5060015b92915050565b6000546001600160a01b031633146102dd57600080fd5b6001600160a01b0381166000818152600160208190526040808320805460ff1916909217909155517f42e160154868087d6bfdc0ca23d96a1c1cfa32f1b72ba9ba27b69b98a0d819dc9190a250565b60006103398484846107b7565b6001600160a01b03841660009081526003602090815260408083203380855292529091205461037391869161036e908661095c565b61068d565b5060019392505050565b3360008181526003602090815260408083206001600160a01b038716845290915281205490916102bc91859061036e90866109c2565b3360008181526003602090815260408083206001600160a01b038716845290915281205490916102bc91859061036e908661095c565b60006102bc3384846107b7565b6000546001600160a01b0316331461040d57600080fd5b6104173382610a28565b6040518181527fcb8241adb0c3fdb35b70c24ce35c5eb0c17af7431c99f827d44a445ca624176a9060200160405180910390a1600080546040518381526001600160a01b039091169190600080516020610d34833981519152906020015b60405180910390a350565b6000546001600160a01b0316331461049757600080fd5b6104a13382610afc565b6040518181527f702d5967f45f6513a38ffc42d6ba9bf230bd40e8f53b16363c7eb4fd2deb9a449060200160405180910390a1600080546040518381526001600160a01b0390911690600080516020610d3483398151915290602001610475565b6000546001600160a01b0316331461051957600080fd5b6001600160a01b038116600081815260016020526040808220805460ff19169055517fd7e9ec6e6ecd65492dce6bf513cd6867560d49544421d0783ddf06e76c24470c9190a250565b6000546001600160a01b0316331461057957600080fd5b6001600160a01b03811661058c57600080fd5b600080546040516001600160a01b03808516939216917f8be0079c531659141344cd1fd0a4f28419497f9722a3daafe3b4186f6b6457e091a3600080546001600160a01b0319166001600160a01b0392909216919091179055565b6000546001600160a01b031633146105fe57600080fd5b6001600160a01b03811660009081526001602052604090205460ff1661062357600080fd5b6001600160a01b0381166000908152600260205260409020546106468282610bcb565b816001600160a01b03167f61e6e66b0d6339b2980aecc6ccc0039736791f0ccde9ed512e789a7fbdd698c68260405161068191815260200190565b60405180910390a25050565b6001600160a01b0383166106f45760405162461bcd60e51b8152602060048201526024808201527f45524332303a20617070726f76652066726f6d20746865207a65726f206164646044820152637265737360e01b60648201526084015b60405180910390fd5b6001600160a01b0382166107555760405162461bcd60e51b815260206004820152602260248201527f45524332303a20617070726f766520746f20746865207a65726f206164647265604482015261737360f01b60648201526084016106eb565b6001600160a01b0383811660008181526003602090815260408083209487168084529482529182902085905590518481527f8c5be1e5ebec7d5bd14f71427d1e84f3dd0314c0f7b2291e5b200ac8c7c3b92591015b60405180910390a3505050565b6001600160a01b03831660009081526001602052604090205460ff161580156107f957506001600160a01b03821660009081526001602052604090205460ff16155b61080257600080fd5b6001600160a01b0383166108665760405162461bcd60e51b815260206004820152602560248201527f45524332303a207472616e736665722066726f6d20746865207a65726f206164604482015264647265737360d81b60648201526084016106eb565b6001600160a01b0382166108c85760405162461bcd60e51b815260206004820152602360248201527f45524332303a207472616e7366657220746f20746865207a65726f206164647260448201526265737360e81b60648201526084016106eb565b6001600160a01b0383166000908152600260205260409020546108eb908261095c565b6001600160a01b03808516600090815260026020526040808220939093559084168152205461091a90826109c2565b6001600160a01b038084166000818152600260205260409081902093909355915190851690600080516020610d34833981519152906107aa9085815260200190565b6000828211156109ae5760405162461bcd60e51b815260206004820152601e60248201527f536166654d6174683a207375627472616374696f6e206f766572666c6f77000060448201526064016106eb565b60006109ba8385610d0d565b949350505050565b6000806109cf8385610d20565b905083811015610a215760405162461bcd60e51b815260206004820152601b60248201527f536166654d6174683a206164646974696f6e206f766572666c6f77000000000060448201526064016106eb565b9392505050565b6001600160a01b038216610a7e5760405162461bcd60e51b815260206004820152601f60248201527f45524332303a206d696e7420746f20746865207a65726f20616464726573730060448201526064016106eb565b600454610a8b90826109c2565b6004556001600160a01b038216600090815260026020526040902054610ab190826109c2565b6001600160a01b038316600081815260026020526040808220939093559151909190600080516020610d3483398151915290610af09085815260200190565b60405180910390a35050565b6001600160a01b038216610b5c5760405162461bcd60e51b815260206004820152602160248201527f45524332303a206275726e2066726f6d20746865207a65726f206164647265736044820152607360f81b60648201526084016106eb565b600454610b69908261095c565b6004556001600160a01b038216600090815260026020526040902054610b8f908261095c565b6001600160a01b038316600081815260026020526040808220939093559151600080516020610d3483398151915290610af09085815260200190565b610bd58282610afc565b6001600160a01b038216600090815260036020908152604080832033808552925290912054610c0a91849161036e908561095c565b5050565b80356001600160a01b0381168114610c2557600080fd5b919050565b60008060408385031215610c3d57600080fd5b610c4683610c0e565b946020939093013593505050565b600060208284031215610c6657600080fd5b610a2182610c0e565b600080600060608486031215610c8457600080fd5b610c8d84610c0e565b9250610c9b60208501610c0e565b9150604084013590509250925092565b600060208284031215610cbd57600080fd5b5035919050565b60008060408385031215610cd757600080fd5b610ce083610c0e565b9150610cee60208401610c0e565b90509250929050565b634e487b7160e01b600052601160045260246000fd5b818103818111156102c0576102c0610cf7565b808201808211156102c0576102c0610cf756feddf252ad1be2c89b69c2b068fc378daa952ba7f163c4a11628f55a4df523b3efa264697066735822122090c60bffc24aacd8dc2a35c79ae5dbc25af786ba3d1f63fd477a5d7b9ff61acb64736f6c63430008110033",
    "sourcePath": "c:/Users/STC/Documents/GitHub/TRON-Contratos/TRC20-emitibles-justswap/TRC20.sol",
    "compiler": {
        "name": "solc",
        "version": "0.8.17+commit.8df45f5f"
    },
    "functionHashes": {
        "addBlackList(address)": "0ecb93c0",
        "allowance(address,address)": "dd62ed3e",
        "approve(address,uint256)": "095ea7b3",
        "balanceOf(address)": "70a08231",
        "decreaseAllowance(address,uint256)": "a457c2d7",
        "destroyBlackFunds(address)": "f3bdc228",
        "increaseAllowance(address,uint256)": "39509351",
        "isBlackListed(address)": "e47d6060",
        "issue(uint256)": "cc872b66",
        "owner()": "8da5cb5b",
        "redeem(uint256)": "db006a75",
        "removeBlackList(address)": "e4997dc5",
        "totalSupply()": "18160ddd",
        "transfer(address,uint256)": "a9059cbb",
        "transferFrom(address,address,uint256)": "23b872dd",
        "transferOwnership(address)": "f2fde38b"
    },
    "gasEstimates": {
        "creation": {
            "codeDepositCost": "693000",
            "executionCost": "24963",
            "totalCost": "717963"
        },
        "external": {
            "addBlackList(address)": "27953",
            "allowance(address,address)": "infinite",
            "approve(address,uint256)": "24611",
            "balanceOf(address)": "2582",
            "decreaseAllowance(address,uint256)": "infinite",
            "destroyBlackFunds(address)": "infinite",
            "increaseAllowance(address,uint256)": "infinite",
            "isBlackListed(address)": "2542",
            "issue(uint256)": "infinite",
            "owner()": "2404",
            "redeem(uint256)": "infinite",
            "removeBlackList(address)": "27933",
            "totalSupply()": "2349",
            "transfer(address,uint256)": "infinite",
            "transferFrom(address,address,uint256)": "infinite",
            "transferOwnership(address)": "30466"
        },
        "internal": {
            "_approve(address,address,uint256)": "infinite",
            "_burn(address,uint256)": "infinite",
            "_burnFrom(address,uint256)": "infinite",
            "_mint(address,uint256)": "infinite",
            "_transfer(address,address,uint256)": "infinite"
        }
    }
}