{
    "contractName": "BlackList",
    "abi": [
        {
            "anonymous": false,
            "inputs": [
                {
                    "indexed": true,
                    "internalType": "address",
                    "name": "_user",
                    "type": "address"
                }
            ],
            "name": "AddedBlackList",
            "type": "event"
        },
        {
            "anonymous": false,
            "inputs": [
                {
                    "indexed": true,
                    "internalType": "address",
                    "name": "previousOwner",
                    "type": "address"
                },
                {
                    "indexed": true,
                    "internalType": "address",
                    "name": "newOwner",
                    "type": "address"
                }
            ],
            "name": "OwnershipTransferred",
            "type": "event"
        },
        {
            "anonymous": false,
            "inputs": [
                {
                    "indexed": true,
                    "internalType": "address",
                    "name": "_user",
                    "type": "address"
                }
            ],
            "name": "RemovedBlackList",
            "type": "event"
        },
        {
            "inputs": [
                {
                    "internalType": "address",
                    "name": "_evilUser",
                    "type": "address"
                }
            ],
            "name": "addBlackList",
            "outputs": [],
            "stateMutability": "nonpayable",
            "type": "function"
        },
        {
            "inputs": [
                {
                    "internalType": "address",
                    "name": "",
                    "type": "address"
                }
            ],
            "name": "isBlackListed",
            "outputs": [
                {
                    "internalType": "bool",
                    "name": "",
                    "type": "bool"
                }
            ],
            "stateMutability": "view",
            "type": "function"
        },
        {
            "inputs": [],
            "name": "owner",
            "outputs": [
                {
                    "internalType": "address",
                    "name": "",
                    "type": "address"
                }
            ],
            "stateMutability": "view",
            "type": "function"
        },
        {
            "inputs": [
                {
                    "internalType": "address",
                    "name": "_clearedUser",
                    "type": "address"
                }
            ],
            "name": "removeBlackList",
            "outputs": [],
            "stateMutability": "nonpayable",
            "type": "function"
        },
        {
            "inputs": [
                {
                    "internalType": "address",
                    "name": "newOwner",
                    "type": "address"
                }
            ],
            "name": "transferOwnership",
            "outputs": [],
            "stateMutability": "nonpayable",
            "type": "function"
        }
    ],
    "bytecode": "608060405234801561001057600080fd5b50600080546001600160a01b031916331781556102c690819061003390396000f3fe608060405234801561001057600080fd5b50600436106100575760003560e01c80630ecb93c01461005c5780638da5cb5b14610071578063e47d6060146100a1578063e4997dc5146100d4578063f2fde38b146100e7575b600080fd5b61006f61006a366004610260565b6100fa565b005b600054610084906001600160a01b031681565b6040516001600160a01b0390911681526020015b60405180910390f35b6100c46100af366004610260565b60016020526000908152604090205460ff1681565b6040519015158152602001610098565b61006f6100e2366004610260565b610169565b61006f6100f5366004610260565b6101d2565b6000546001600160a01b0316336001600160a01b03161461011a57600080fd5b6001600160a01b0381166000818152600160208190526040808320805460ff1916909217909155517f42e160154868087d6bfdc0ca23d96a1c1cfa32f1b72ba9ba27b69b98a0d819dc9190a250565b6000546001600160a01b0316336001600160a01b03161461018957600080fd5b6001600160a01b038116600081815260016020526040808220805460ff19169055517fd7e9ec6e6ecd65492dce6bf513cd6867560d49544421d0783ddf06e76c24470c9190a250565b6000546001600160a01b0316336001600160a01b0316146101f257600080fd5b6001600160a01b03811661020557600080fd5b600080546040516001600160a01b03808516939216917f8be0079c531659141344cd1fd0a4f28419497f9722a3daafe3b4186f6b6457e091a3600080546001600160a01b0319166001600160a01b0392909216919091179055565b60006020828403121561027257600080fd5b81356001600160a01b038116811461028957600080fd5b939250505056fea2646970667358221220051a2db27f31e0939163b3fecad5008f9114d2eb975fbe441d0b0456cf0bb7a164736f6c63430008070033",
    "sourcePath": "c:/Users/STC/Documents/GitHub/TRON-Contratos/BEP20-BINANCE/BEP20-emitibles.sol",
    "compiler": {
        "name": "solc",
        "version": "0.8.7+commit.e28d00a7"
    },
    "functionHashes": {
        "addBlackList(address)": "0ecb93c0",
        "isBlackListed(address)": "e47d6060",
        "owner()": "8da5cb5b",
        "removeBlackList(address)": "e4997dc5",
        "transferOwnership(address)": "f2fde38b"
    },
    "gasEstimates": {
        "creation": {
            "codeDepositCost": "142000",
            "executionCost": "24431",
            "totalCost": "166431"
        },
        "external": {
            "addBlackList(address)": "27868",
            "isBlackListed(address)": "2518",
            "owner()": "2326",
            "removeBlackList(address)": "27916",
            "transferOwnership(address)": "30449"
        }
    }
}