{
    "contractName": "TRC20Detailed",
    "abi": [
        {
            "inputs": [
                {
                    "internalType": "string",
                    "name": "_name",
                    "type": "string"
                },
                {
                    "internalType": "string",
                    "name": "_symbol",
                    "type": "string"
                },
                {
                    "internalType": "uint8",
                    "name": "_decimals",
                    "type": "uint8"
                },
                {
                    "internalType": "uint256",
                    "name": "initialSupply",
                    "type": "uint256"
                }
            ],
            "stateMutability": "nonpayable",
            "type": "constructor"
        },
        {
            "anonymous": false,
            "inputs": [
                {
                    "indexed": true,
                    "internalType": "address",
                    "name": "_user",
                    "type": "address"
                }
            ],
            "name": "AddedBlackList",
            "type": "event"
        },
        {
            "anonymous": false,
            "inputs": [
                {
                    "indexed": true,
                    "internalType": "address",
                    "name": "owner",
                    "type": "address"
                },
                {
                    "indexed": true,
                    "internalType": "address",
                    "name": "spender",
                    "type": "address"
                },
                {
                    "indexed": false,
                    "internalType": "uint256",
                    "name": "value",
                    "type": "uint256"
                }
            ],
            "name": "Approval",
            "type": "event"
        },
        {
            "anonymous": false,
            "inputs": [
                {
                    "indexed": true,
                    "internalType": "address",
                    "name": "_blackListedUser",
                    "type": "address"
                },
                {
                    "indexed": false,
                    "internalType": "uint256",
                    "name": "_balance",
                    "type": "uint256"
                }
            ],
            "name": "DestroyedBlackFunds",
            "type": "event"
        },
        {
            "anonymous": false,
            "inputs": [
                {
                    "indexed": false,
                    "internalType": "uint256",
                    "name": "value",
                    "type": "uint256"
                }
            ],
            "name": "Issue",
            "type": "event"
        },
        {
            "anonymous": false,
            "inputs": [
                {
                    "indexed": true,
                    "internalType": "address",
                    "name": "previousOwner",
                    "type": "address"
                },
                {
                    "indexed": true,
                    "internalType": "address",
                    "name": "newOwner",
                    "type": "address"
                }
            ],
            "name": "OwnershipTransferred",
            "type": "event"
        },
        {
            "anonymous": false,
            "inputs": [
                {
                    "indexed": false,
                    "internalType": "uint256",
                    "name": "value",
                    "type": "uint256"
                }
            ],
            "name": "Redeem",
            "type": "event"
        },
        {
            "anonymous": false,
            "inputs": [
                {
                    "indexed": true,
                    "internalType": "address",
                    "name": "_user",
                    "type": "address"
                }
            ],
            "name": "RemovedBlackList",
            "type": "event"
        },
        {
            "anonymous": false,
            "inputs": [
                {
                    "indexed": true,
                    "internalType": "address",
                    "name": "from",
                    "type": "address"
                },
                {
                    "indexed": true,
                    "internalType": "address",
                    "name": "to",
                    "type": "address"
                },
                {
                    "indexed": false,
                    "internalType": "uint256",
                    "name": "value",
                    "type": "uint256"
                }
            ],
            "name": "Transfer",
            "type": "event"
        },
        {
            "inputs": [
                {
                    "internalType": "address",
                    "name": "_evilUser",
                    "type": "address"
                }
            ],
            "name": "addBlackList",
            "outputs": [],
            "stateMutability": "nonpayable",
            "type": "function"
        },
        {
            "inputs": [
                {
                    "internalType": "address",
                    "name": "owner",
                    "type": "address"
                },
                {
                    "internalType": "address",
                    "name": "spender",
                    "type": "address"
                }
            ],
            "name": "allowance",
            "outputs": [
                {
                    "internalType": "uint256",
                    "name": "",
                    "type": "uint256"
                }
            ],
            "stateMutability": "view",
            "type": "function"
        },
        {
            "inputs": [
                {
                    "internalType": "address",
                    "name": "spender",
                    "type": "address"
                },
                {
                    "internalType": "uint256",
                    "name": "value",
                    "type": "uint256"
                }
            ],
            "name": "approve",
            "outputs": [
                {
                    "internalType": "bool",
                    "name": "",
                    "type": "bool"
                }
            ],
            "stateMutability": "nonpayable",
            "type": "function"
        },
        {
            "inputs": [
                {
                    "internalType": "address",
                    "name": "account",
                    "type": "address"
                }
            ],
            "name": "balanceOf",
            "outputs": [
                {
                    "internalType": "uint256",
                    "name": "",
                    "type": "uint256"
                }
            ],
            "stateMutability": "view",
            "type": "function"
        },
        {
            "inputs": [],
            "name": "decimals",
            "outputs": [
                {
                    "internalType": "uint8",
                    "name": "",
                    "type": "uint8"
                }
            ],
            "stateMutability": "view",
            "type": "function"
        },
        {
            "inputs": [
                {
                    "internalType": "address",
                    "name": "spender",
                    "type": "address"
                },
                {
                    "internalType": "uint256",
                    "name": "subtractedValue",
                    "type": "uint256"
                }
            ],
            "name": "decreaseAllowance",
            "outputs": [
                {
                    "internalType": "bool",
                    "name": "",
                    "type": "bool"
                }
            ],
            "stateMutability": "nonpayable",
            "type": "function"
        },
        {
            "inputs": [
                {
                    "internalType": "address",
                    "name": "_blackListedUser",
                    "type": "address"
                }
            ],
            "name": "destroyBlackFunds",
            "outputs": [],
            "stateMutability": "nonpayable",
            "type": "function"
        },
        {
            "inputs": [
                {
                    "internalType": "address",
                    "name": "spender",
                    "type": "address"
                },
                {
                    "internalType": "uint256",
                    "name": "addedValue",
                    "type": "uint256"
                }
            ],
            "name": "increaseAllowance",
            "outputs": [
                {
                    "internalType": "bool",
                    "name": "",
                    "type": "bool"
                }
            ],
            "stateMutability": "nonpayable",
            "type": "function"
        },
        {
            "inputs": [
                {
                    "internalType": "address",
                    "name": "",
                    "type": "address"
                }
            ],
            "name": "isBlackListed",
            "outputs": [
                {
                    "internalType": "bool",
                    "name": "",
                    "type": "bool"
                }
            ],
            "stateMutability": "view",
            "type": "function"
        },
        {
            "inputs": [
                {
                    "internalType": "uint256",
                    "name": "amount",
                    "type": "uint256"
                }
            ],
            "name": "issue",
            "outputs": [],
            "stateMutability": "nonpayable",
            "type": "function"
        },
        {
            "inputs": [],
            "name": "name",
            "outputs": [
                {
                    "internalType": "string",
                    "name": "",
                    "type": "string"
                }
            ],
            "stateMutability": "view",
            "type": "function"
        },
        {
            "inputs": [],
            "name": "owner",
            "outputs": [
                {
                    "internalType": "address",
                    "name": "",
                    "type": "address"
                }
            ],
            "stateMutability": "view",
            "type": "function"
        },
        {
            "inputs": [
                {
                    "internalType": "uint256",
                    "name": "amount",
                    "type": "uint256"
                }
            ],
            "name": "redeem",
            "outputs": [],
            "stateMutability": "nonpayable",
            "type": "function"
        },
        {
            "inputs": [
                {
                    "internalType": "address",
                    "name": "_clearedUser",
                    "type": "address"
                }
            ],
            "name": "removeBlackList",
            "outputs": [],
            "stateMutability": "nonpayable",
            "type": "function"
        },
        {
            "inputs": [],
            "name": "symbol",
            "outputs": [
                {
                    "internalType": "string",
                    "name": "",
                    "type": "string"
                }
            ],
            "stateMutability": "view",
            "type": "function"
        },
        {
            "inputs": [],
            "name": "totalSupply",
            "outputs": [
                {
                    "internalType": "uint256",
                    "name": "",
                    "type": "uint256"
                }
            ],
            "stateMutability": "view",
            "type": "function"
        },
        {
            "inputs": [
                {
                    "internalType": "address",
                    "name": "recipient",
                    "type": "address"
                },
                {
                    "internalType": "uint256",
                    "name": "amount",
                    "type": "uint256"
                }
            ],
            "name": "transfer",
            "outputs": [
                {
                    "internalType": "bool",
                    "name": "",
                    "type": "bool"
                }
            ],
            "stateMutability": "nonpayable",
            "type": "function"
        },
        {
            "inputs": [
                {
                    "internalType": "address",
                    "name": "sender",
                    "type": "address"
                },
                {
                    "internalType": "address",
                    "name": "recipient",
                    "type": "address"
                },
                {
                    "internalType": "uint256",
                    "name": "amount",
                    "type": "uint256"
                }
            ],
            "name": "transferFrom",
            "outputs": [
                {
                    "internalType": "bool",
                    "name": "",
                    "type": "bool"
                }
            ],
            "stateMutability": "nonpayable",
            "type": "function"
        },
        {
            "inputs": [
                {
                    "internalType": "address",
                    "name": "newOwner",
                    "type": "address"
                }
            ],
            "name": "transferOwnership",
            "outputs": [],
            "stateMutability": "nonpayable",
            "type": "function"
        }
    ],
    "bytecode": "60806040523480156200001157600080fd5b506040516200153c3803806200153c833981016040819052620000349162000390565b600080546001600160a01b0319163317905583516200005b90600590602087019062000233565b5082516200007190600690602086019062000233565b506007805460ff191660ff8416179055620000b26200008d3390565b600754620000a09060ff16600a6200047f565b620000ac908462000548565b620000bc565b50505050620005d3565b6001600160a01b038216620001185760405162461bcd60e51b815260206004820152601f60248201527f45524332303a206d696e7420746f20746865207a65726f20616464726573730060448201526064015b60405180910390fd5b6200013481600454620001c760201b620007cf1790919060201c565b6004556001600160a01b03821660009081526002602090815260409091205462000169918390620007cf620001c7821b17901c565b6001600160a01b0383166000818152600260205260408082209390935591519091907fddf252ad1be2c89b69c2b068fc378daa952ba7f163c4a11628f55a4df523b3ef90620001bb9085815260200190565b60405180910390a35050565b600080620001d683856200041b565b9050838110156200022a5760405162461bcd60e51b815260206004820152601b60248201527f536166654d6174683a206164646974696f6e206f766572666c6f77000000000060448201526064016200010f565b90505b92915050565b82805462000241906200056a565b90600052602060002090601f016020900481019282620002655760008555620002b0565b82601f106200028057805160ff1916838001178555620002b0565b82800160010185558215620002b0579182015b82811115620002b057825182559160200191906001019062000293565b50620002be929150620002c2565b5090565b5b80821115620002be5760008155600101620002c3565b600082601f830112620002eb57600080fd5b81516001600160401b0380821115620003085762000308620005bd565b604051601f8301601f19908116603f01168101908282118183101715620003335762000333620005bd565b816040528381526020925086838588010111156200035057600080fd5b600091505b8382101562000374578582018301518183018401529082019062000355565b83821115620003865760008385830101525b9695505050505050565b60008060008060808587031215620003a757600080fd5b84516001600160401b0380821115620003bf57600080fd5b620003cd88838901620002d9565b95506020870151915080821115620003e457600080fd5b50620003f387828801620002d9565b935050604085015160ff811681146200040b57600080fd5b6060959095015193969295505050565b60008219821115620004315762000431620005a7565b500190565b600181815b80851115620004775781600019048211156200045b576200045b620005a7565b808516156200046957918102915b93841c93908002906200043b565b509250929050565b60006200048d838362000494565b9392505050565b600082620004a5575060016200022d565b81620004b4575060006200022d565b8160018114620004cd5760028114620004d857620004f8565b60019150506200022d565b60ff841115620004ec57620004ec620005a7565b50506001821b6200022d565b5060208310610133831016604e8410600b84101617156200051d575081810a6200022d565b62000529838362000436565b8060001904821115620005405762000540620005a7565b029392505050565b6000816000190483118215151615620005655762000565620005a7565b500290565b600181811c908216806200057f57607f821691505b60208210811415620005a157634e487b7160e01b600052602260045260246000fd5b50919050565b634e487b7160e01b600052601160045260246000fd5b634e487b7160e01b600052604160045260246000fd5b610f5980620005e36000396000f3fe608060405234801561001057600080fd5b50600436106101215760003560e01c806395d89b41116100ad578063dd62ed3e11610071578063dd62ed3e1461027b578063e47d6060146102b4578063e4997dc5146102d7578063f2fde38b146102ea578063f3bdc228146102fd57600080fd5b806395d89b4114610227578063a457c2d71461022f578063a9059cbb14610242578063cc872b6614610255578063db006a751461026857600080fd5b806323b872dd116100f457806323b872dd1461018e578063313ce567146101a157806339509351146101c057806370a08231146101d35780638da5cb5b146101fc57600080fd5b806306fdde0314610126578063095ea7b3146101445780630ecb93c01461016757806318160ddd1461017c575b600080fd5b61012e610310565b60405161013b9190610e2e565b60405180910390f35b610157610152366004610deb565b61039e565b604051901515815260200161013b565b61017a610175366004610d61565b6103b4565b005b6004545b60405190815260200161013b565b61015761019c366004610daf565b610423565b6007546101ae9060ff1681565b60405160ff909116815260200161013b565b6101576101ce366004610deb565b610485565b6101806101e1366004610d61565b6001600160a01b031660009081526002602052604090205490565b60005461020f906001600160a01b031681565b6040516001600160a01b03909116815260200161013b565b61012e6104bb565b61015761023d366004610deb565b6104c8565b610157610250366004610deb565b6104fe565b61017a610263366004610e15565b61050b565b61017a610276366004610e15565b61059e565b610180610289366004610d7c565b6001600160a01b03918216600090815260036020908152604080832093909416825291909152205490565b6101576102c2366004610d61565b60016020526000908152604090205460ff1681565b61017a6102e5366004610d61565b610629565b61017a6102f8366004610d61565b610692565b61017a61030b366004610d61565b610720565b6005805461031d90610eb2565b80601f016020809104026020016040519081016040528092919081815260200182805461034990610eb2565b80156103965780601f1061036b57610100808354040283529160200191610396565b820191906000526020600020905b81548152906001019060200180831161037957829003601f168201915b505050505081565b60006103ab33848461083a565b50600192915050565b6000546001600160a01b0316336001600160a01b0316146103d457600080fd5b6001600160a01b0381166000818152600160208190526040808320805460ff1916909217909155517f42e160154868087d6bfdc0ca23d96a1c1cfa32f1b72ba9ba27b69b98a0d819dc9190a250565b600061043084848461095f565b61047b84336001600160a01b038716600090815260036020526040812061047691879190335b6001600160a01b0316815260208101919091526040016000205490610b04565b61083a565b5060019392505050565b3360008181526003602090815260408083206001600160a01b038716845290915281205490916103ab91859061047690866107cf565b6006805461031d90610eb2565b3360008181526003602090815260408083206001600160a01b038716845290915281205490916103ab9185906104769086610b04565b60006103ab33848461095f565b6000546001600160a01b0316336001600160a01b03161461052b57600080fd5b6105353382610b6a565b6040518181527fcb8241adb0c3fdb35b70c24ce35c5eb0c17af7431c99f827d44a445ca624176a9060200160405180910390a1600080546040518381526001600160a01b039091169190600080516020610f04833981519152906020015b60405180910390a350565b6000546001600160a01b0316336001600160a01b0316146105be57600080fd5b6105c83382610c3e565b6040518181527f702d5967f45f6513a38ffc42d6ba9bf230bd40e8f53b16363c7eb4fd2deb9a449060200160405180910390a1600080546040518381526001600160a01b0390911690600080516020610f0483398151915290602001610593565b6000546001600160a01b0316336001600160a01b03161461064957600080fd5b6001600160a01b038116600081815260016020526040808220805460ff19169055517fd7e9ec6e6ecd65492dce6bf513cd6867560d49544421d0783ddf06e76c24470c9190a250565b6000546001600160a01b0316336001600160a01b0316146106b257600080fd5b6001600160a01b0381166106c557600080fd5b600080546040516001600160a01b03808516939216917f8be0079c531659141344cd1fd0a4f28419497f9722a3daafe3b4186f6b6457e091a3600080546001600160a01b0319166001600160a01b0392909216919091179055565b6000546001600160a01b0316336001600160a01b03161461074057600080fd5b6001600160a01b03811660009081526001602052604090205460ff1661076557600080fd5b6001600160a01b0381166000908152600260205260409020546107888282610d0d565b816001600160a01b03167f61e6e66b0d6339b2980aecc6ccc0039736791f0ccde9ed512e789a7fbdd698c6826040516107c391815260200190565b60405180910390a25050565b6000806107dc8385610e83565b9050838110156108335760405162461bcd60e51b815260206004820152601b60248201527f536166654d6174683a206164646974696f6e206f766572666c6f77000000000060448201526064015b60405180910390fd5b9392505050565b6001600160a01b03831661089c5760405162461bcd60e51b8152602060048201526024808201527f45524332303a20617070726f76652066726f6d20746865207a65726f206164646044820152637265737360e01b606482015260840161082a565b6001600160a01b0382166108fd5760405162461bcd60e51b815260206004820152602260248201527f45524332303a20617070726f766520746f20746865207a65726f206164647265604482015261737360f01b606482015260840161082a565b6001600160a01b0383811660008181526003602090815260408083209487168084529482529182902085905590518481527f8c5be1e5ebec7d5bd14f71427d1e84f3dd0314c0f7b2291e5b200ac8c7c3b92591015b60405180910390a3505050565b6001600160a01b03831660009081526001602052604090205460ff161580156109a157506001600160a01b03821660009081526001602052604090205460ff16155b6109aa57600080fd5b6001600160a01b038316610a0e5760405162461bcd60e51b815260206004820152602560248201527f45524332303a207472616e736665722066726f6d20746865207a65726f206164604482015264647265737360d81b606482015260840161082a565b6001600160a01b038216610a705760405162461bcd60e51b815260206004820152602360248201527f45524332303a207472616e7366657220746f20746865207a65726f206164647260448201526265737360e81b606482015260840161082a565b6001600160a01b038316600090815260026020526040902054610a939082610b04565b6001600160a01b038085166000908152600260205260408082209390935590841681522054610ac290826107cf565b6001600160a01b038084166000818152600260205260409081902093909355915190851690600080516020610f04833981519152906109529085815260200190565b600082821115610b565760405162461bcd60e51b815260206004820152601e60248201527f536166654d6174683a207375627472616374696f6e206f766572666c6f770000604482015260640161082a565b6000610b628385610e9b565b949350505050565b6001600160a01b038216610bc05760405162461bcd60e51b815260206004820152601f60248201527f45524332303a206d696e7420746f20746865207a65726f206164647265737300604482015260640161082a565b600454610bcd90826107cf565b6004556001600160a01b038216600090815260026020526040902054610bf390826107cf565b6001600160a01b038316600081815260026020526040808220939093559151909190600080516020610f0483398151915290610c329085815260200190565b60405180910390a35050565b6001600160a01b038216610c9e5760405162461bcd60e51b815260206004820152602160248201527f45524332303a206275726e2066726f6d20746865207a65726f206164647265736044820152607360f81b606482015260840161082a565b600454610cab9082610b04565b6004556001600160a01b038216600090815260026020526040902054610cd19082610b04565b6001600160a01b038316600081815260026020526040808220939093559151600080516020610f0483398151915290610c329085815260200190565b610d178282610c3e565b610d4182336001600160a01b03851660009081526003602052604081206104769186919033610456565b5050565b80356001600160a01b0381168114610d5c57600080fd5b919050565b600060208284031215610d7357600080fd5b61083382610d45565b60008060408385031215610d8f57600080fd5b610d9883610d45565b9150610da660208401610d45565b90509250929050565b600080600060608486031215610dc457600080fd5b610dcd84610d45565b9250610ddb60208501610d45565b9150604084013590509250925092565b60008060408385031215610dfe57600080fd5b610e0783610d45565b946020939093013593505050565b600060208284031215610e2757600080fd5b5035919050565b600060208083528351808285015260005b81811015610e5b57858101830151858201604001528201610e3f565b81811115610e6d576000604083870101525b50601f01601f1916929092016040019392505050565b60008219821115610e9657610e96610eed565b500190565b600082821015610ead57610ead610eed565b500390565b600181811c90821680610ec657607f821691505b60208210811415610ee757634e487b7160e01b600052602260045260246000fd5b50919050565b634e487b7160e01b600052601160045260246000fdfeddf252ad1be2c89b69c2b068fc378daa952ba7f163c4a11628f55a4df523b3efa26469706673582212208bd5da15742ad1b8bd7086279b459125a83aa279e82475cd12e598b33652be0464736f6c63430008070033",
    "sourcePath": "c:/Users/STC/Documents/GitHub/TRON-Contratos/BEP20-BINANCE/BEP20-emitibles.sol",
    "compiler": {
        "name": "solc",
        "version": "0.8.7+commit.e28d00a7"
    },
    "functionHashes": {
        "addBlackList(address)": "0ecb93c0",
        "allowance(address,address)": "dd62ed3e",
        "approve(address,uint256)": "095ea7b3",
        "balanceOf(address)": "70a08231",
        "decimals()": "313ce567",
        "decreaseAllowance(address,uint256)": "a457c2d7",
        "destroyBlackFunds(address)": "f3bdc228",
        "increaseAllowance(address,uint256)": "39509351",
        "isBlackListed(address)": "e47d6060",
        "issue(uint256)": "cc872b66",
        "name()": "06fdde03",
        "owner()": "8da5cb5b",
        "redeem(uint256)": "db006a75",
        "removeBlackList(address)": "e4997dc5",
        "symbol()": "95d89b41",
        "totalSupply()": "18160ddd",
        "transfer(address,uint256)": "a9059cbb",
        "transferFrom(address,address,uint256)": "23b872dd",
        "transferOwnership(address)": "f2fde38b"
    },
    "gasEstimates": {
        "creation": {
            "codeDepositCost": "785800",
            "executionCost": "infinite",
            "totalCost": "infinite"
        },
        "external": {
            "addBlackList(address)": "27993",
            "allowance(address,address)": "infinite",
            "approve(address,uint256)": "24643",
            "balanceOf(address)": "2626",
            "decimals()": "2358",
            "decreaseAllowance(address,uint256)": "27050",
            "destroyBlackFunds(address)": "infinite",
            "increaseAllowance(address,uint256)": "27078",
            "isBlackListed(address)": "2575",
            "issue(uint256)": "infinite",
            "name()": "infinite",
            "owner()": "2448",
            "redeem(uint256)": "infinite",
            "removeBlackList(address)": "27973",
            "symbol()": "infinite",
            "totalSupply()": "2371",
            "transfer(address,uint256)": "infinite",
            "transferFrom(address,address,uint256)": "infinite",
            "transferOwnership(address)": "30506"
        }
    }
}