{
    "contractName": "TRC20",
    "abi": [
        {
            "anonymous": false,
            "inputs": [
                {
                    "indexed": true,
                    "internalType": "address",
                    "name": "_user",
                    "type": "address"
                }
            ],
            "name": "AddedBlackList",
            "type": "event"
        },
        {
            "anonymous": false,
            "inputs": [
                {
                    "indexed": true,
                    "internalType": "address",
                    "name": "owner",
                    "type": "address"
                },
                {
                    "indexed": true,
                    "internalType": "address",
                    "name": "spender",
                    "type": "address"
                },
                {
                    "indexed": false,
                    "internalType": "uint256",
                    "name": "value",
                    "type": "uint256"
                }
            ],
            "name": "Approval",
            "type": "event"
        },
        {
            "anonymous": false,
            "inputs": [
                {
                    "indexed": true,
                    "internalType": "address",
                    "name": "_blackListedUser",
                    "type": "address"
                },
                {
                    "indexed": false,
                    "internalType": "uint256",
                    "name": "_balance",
                    "type": "uint256"
                }
            ],
            "name": "DestroyedBlackFunds",
            "type": "event"
        },
        {
            "anonymous": false,
            "inputs": [
                {
                    "indexed": false,
                    "internalType": "uint256",
                    "name": "value",
                    "type": "uint256"
                }
            ],
            "name": "Issue",
            "type": "event"
        },
        {
            "anonymous": false,
            "inputs": [
                {
                    "indexed": true,
                    "internalType": "address",
                    "name": "previousOwner",
                    "type": "address"
                },
                {
                    "indexed": true,
                    "internalType": "address",
                    "name": "newOwner",
                    "type": "address"
                }
            ],
            "name": "OwnershipTransferred",
            "type": "event"
        },
        {
            "anonymous": false,
            "inputs": [
                {
                    "indexed": false,
                    "internalType": "uint256",
                    "name": "value",
                    "type": "uint256"
                }
            ],
            "name": "Redeem",
            "type": "event"
        },
        {
            "anonymous": false,
            "inputs": [
                {
                    "indexed": true,
                    "internalType": "address",
                    "name": "_user",
                    "type": "address"
                }
            ],
            "name": "RemovedBlackList",
            "type": "event"
        },
        {
            "anonymous": false,
            "inputs": [
                {
                    "indexed": true,
                    "internalType": "address",
                    "name": "from",
                    "type": "address"
                },
                {
                    "indexed": true,
                    "internalType": "address",
                    "name": "to",
                    "type": "address"
                },
                {
                    "indexed": false,
                    "internalType": "uint256",
                    "name": "value",
                    "type": "uint256"
                }
            ],
            "name": "Transfer",
            "type": "event"
        },
        {
            "inputs": [
                {
                    "internalType": "address",
                    "name": "_evilUser",
                    "type": "address"
                }
            ],
            "name": "addBlackList",
            "outputs": [],
            "stateMutability": "nonpayable",
            "type": "function"
        },
        {
            "inputs": [
                {
                    "internalType": "address",
                    "name": "owner",
                    "type": "address"
                },
                {
                    "internalType": "address",
                    "name": "spender",
                    "type": "address"
                }
            ],
            "name": "allowance",
            "outputs": [
                {
                    "internalType": "uint256",
                    "name": "",
                    "type": "uint256"
                }
            ],
            "stateMutability": "view",
            "type": "function"
        },
        {
            "inputs": [
                {
                    "internalType": "address",
                    "name": "spender",
                    "type": "address"
                },
                {
                    "internalType": "uint256",
                    "name": "value",
                    "type": "uint256"
                }
            ],
            "name": "approve",
            "outputs": [
                {
                    "internalType": "bool",
                    "name": "",
                    "type": "bool"
                }
            ],
            "stateMutability": "nonpayable",
            "type": "function"
        },
        {
            "inputs": [
                {
                    "internalType": "address",
                    "name": "account",
                    "type": "address"
                }
            ],
            "name": "balanceOf",
            "outputs": [
                {
                    "internalType": "uint256",
                    "name": "",
                    "type": "uint256"
                }
            ],
            "stateMutability": "view",
            "type": "function"
        },
        {
            "inputs": [
                {
                    "internalType": "address",
                    "name": "spender",
                    "type": "address"
                },
                {
                    "internalType": "uint256",
                    "name": "subtractedValue",
                    "type": "uint256"
                }
            ],
            "name": "decreaseAllowance",
            "outputs": [
                {
                    "internalType": "bool",
                    "name": "",
                    "type": "bool"
                }
            ],
            "stateMutability": "nonpayable",
            "type": "function"
        },
        {
            "inputs": [
                {
                    "internalType": "address",
                    "name": "_blackListedUser",
                    "type": "address"
                }
            ],
            "name": "destroyBlackFunds",
            "outputs": [],
            "stateMutability": "nonpayable",
            "type": "function"
        },
        {
            "inputs": [
                {
                    "internalType": "address",
                    "name": "spender",
                    "type": "address"
                },
                {
                    "internalType": "uint256",
                    "name": "addedValue",
                    "type": "uint256"
                }
            ],
            "name": "increaseAllowance",
            "outputs": [
                {
                    "internalType": "bool",
                    "name": "",
                    "type": "bool"
                }
            ],
            "stateMutability": "nonpayable",
            "type": "function"
        },
        {
            "inputs": [
                {
                    "internalType": "address",
                    "name": "",
                    "type": "address"
                }
            ],
            "name": "isBlackListed",
            "outputs": [
                {
                    "internalType": "bool",
                    "name": "",
                    "type": "bool"
                }
            ],
            "stateMutability": "view",
            "type": "function"
        },
        {
            "inputs": [
                {
                    "internalType": "uint256",
                    "name": "amount",
                    "type": "uint256"
                }
            ],
            "name": "issue",
            "outputs": [],
            "stateMutability": "nonpayable",
            "type": "function"
        },
        {
            "inputs": [],
            "name": "owner",
            "outputs": [
                {
                    "internalType": "address",
                    "name": "",
                    "type": "address"
                }
            ],
            "stateMutability": "view",
            "type": "function"
        },
        {
            "inputs": [
                {
                    "internalType": "uint256",
                    "name": "amount",
                    "type": "uint256"
                }
            ],
            "name": "redeem",
            "outputs": [],
            "stateMutability": "nonpayable",
            "type": "function"
        },
        {
            "inputs": [
                {
                    "internalType": "address",
                    "name": "_clearedUser",
                    "type": "address"
                }
            ],
            "name": "removeBlackList",
            "outputs": [],
            "stateMutability": "nonpayable",
            "type": "function"
        },
        {
            "inputs": [],
            "name": "totalSupply",
            "outputs": [
                {
                    "internalType": "uint256",
                    "name": "",
                    "type": "uint256"
                }
            ],
            "stateMutability": "view",
            "type": "function"
        },
        {
            "inputs": [
                {
                    "internalType": "address",
                    "name": "recipient",
                    "type": "address"
                },
                {
                    "internalType": "uint256",
                    "name": "amount",
                    "type": "uint256"
                }
            ],
            "name": "transfer",
            "outputs": [
                {
                    "internalType": "bool",
                    "name": "",
                    "type": "bool"
                }
            ],
            "stateMutability": "nonpayable",
            "type": "function"
        },
        {
            "inputs": [
                {
                    "internalType": "address",
                    "name": "sender",
                    "type": "address"
                },
                {
                    "internalType": "address",
                    "name": "recipient",
                    "type": "address"
                },
                {
                    "internalType": "uint256",
                    "name": "amount",
                    "type": "uint256"
                }
            ],
            "name": "transferFrom",
            "outputs": [
                {
                    "internalType": "bool",
                    "name": "",
                    "type": "bool"
                }
            ],
            "stateMutability": "nonpayable",
            "type": "function"
        },
        {
            "inputs": [
                {
                    "internalType": "address",
                    "name": "newOwner",
                    "type": "address"
                }
            ],
            "name": "transferOwnership",
            "outputs": [],
            "stateMutability": "nonpayable",
            "type": "function"
        }
    ],
    "bytecode": "608060405234801561001057600080fd5b50600080546001600160a01b03191633178155610dcd90819061003390396000f3fe608060405234801561001057600080fd5b50600436106101005760003560e01c8063a9059cbb11610097578063e47d606011610066578063e47d606014610253578063e4997dc514610276578063f2fde38b14610289578063f3bdc2281461029c57600080fd5b8063a9059cbb146101e1578063cc872b66146101f4578063db006a7514610207578063dd62ed3e1461021a57600080fd5b806339509351116100d3578063395093511461016757806370a082311461017a5780638da5cb5b146101a3578063a457c2d7146101ce57600080fd5b8063095ea7b3146101055780630ecb93c01461012d57806318160ddd1461014257806323b872dd14610154575b600080fd5b610118610113366004610cef565b6102af565b60405190151581526020015b60405180910390f35b61014061013b366004610c65565b6102c5565b005b6004545b604051908152602001610124565b610118610162366004610cb3565b610334565b610118610175366004610cef565b610396565b610146610188366004610c65565b6001600160a01b031660009081526002602052604090205490565b6000546101b6906001600160a01b031681565b6040516001600160a01b039091168152602001610124565b6101186101dc366004610cef565b6103cc565b6101186101ef366004610cef565b610402565b610140610202366004610d19565b61040f565b610140610215366004610d19565b6104a2565b610146610228366004610c80565b6001600160a01b03918216600090815260036020908152604080832093909416825291909152205490565b610118610261366004610c65565b60016020526000908152604090205460ff1681565b610140610284366004610c65565b61052d565b610140610297366004610c65565b610596565b6101406102aa366004610c65565b610624565b60006102bc3384846106d3565b50600192915050565b6000546001600160a01b0316336001600160a01b0316146102e557600080fd5b6001600160a01b0381166000818152600160208190526040808320805460ff1916909217909155517f42e160154868087d6bfdc0ca23d96a1c1cfa32f1b72ba9ba27b69b98a0d819dc9190a250565b60006103418484846107fd565b61038c84336001600160a01b038716600090815260036020526040812061038791879190335b6001600160a01b03168152602081019190915260400160002054906109a2565b6106d3565b5060019392505050565b3360008181526003602090815260408083206001600160a01b038716845290915281205490916102bc9185906103879086610a08565b3360008181526003602090815260408083206001600160a01b038716845290915281205490916102bc91859061038790866109a2565b60006102bc3384846107fd565b6000546001600160a01b0316336001600160a01b03161461042f57600080fd5b6104393382610a6e565b6040518181527fcb8241adb0c3fdb35b70c24ce35c5eb0c17af7431c99f827d44a445ca624176a9060200160405180910390a1600080546040518381526001600160a01b039091169190600080516020610d78833981519152906020015b60405180910390a350565b6000546001600160a01b0316336001600160a01b0316146104c257600080fd5b6104cc3382610b42565b6040518181527f702d5967f45f6513a38ffc42d6ba9bf230bd40e8f53b16363c7eb4fd2deb9a449060200160405180910390a1600080546040518381526001600160a01b0390911690600080516020610d7883398151915290602001610497565b6000546001600160a01b0316336001600160a01b03161461054d57600080fd5b6001600160a01b038116600081815260016020526040808220805460ff19169055517fd7e9ec6e6ecd65492dce6bf513cd6867560d49544421d0783ddf06e76c24470c9190a250565b6000546001600160a01b0316336001600160a01b0316146105b657600080fd5b6001600160a01b0381166105c957600080fd5b600080546040516001600160a01b03808516939216917f8be0079c531659141344cd1fd0a4f28419497f9722a3daafe3b4186f6b6457e091a3600080546001600160a01b0319166001600160a01b0392909216919091179055565b6000546001600160a01b0316336001600160a01b03161461064457600080fd5b6001600160a01b03811660009081526001602052604090205460ff1661066957600080fd5b6001600160a01b03811660009081526002602052604090205461068c8282610c11565b816001600160a01b03167f61e6e66b0d6339b2980aecc6ccc0039736791f0ccde9ed512e789a7fbdd698c6826040516106c791815260200190565b60405180910390a25050565b6001600160a01b03831661073a5760405162461bcd60e51b8152602060048201526024808201527f45524332303a20617070726f76652066726f6d20746865207a65726f206164646044820152637265737360e01b60648201526084015b60405180910390fd5b6001600160a01b03821661079b5760405162461bcd60e51b815260206004820152602260248201527f45524332303a20617070726f766520746f20746865207a65726f206164647265604482015261737360f01b6064820152608401610731565b6001600160a01b0383811660008181526003602090815260408083209487168084529482529182902085905590518481527f8c5be1e5ebec7d5bd14f71427d1e84f3dd0314c0f7b2291e5b200ac8c7c3b92591015b60405180910390a3505050565b6001600160a01b03831660009081526001602052604090205460ff1615801561083f57506001600160a01b03821660009081526001602052604090205460ff16155b61084857600080fd5b6001600160a01b0383166108ac5760405162461bcd60e51b815260206004820152602560248201527f45524332303a207472616e736665722066726f6d20746865207a65726f206164604482015264647265737360d81b6064820152608401610731565b6001600160a01b03821661090e5760405162461bcd60e51b815260206004820152602360248201527f45524332303a207472616e7366657220746f20746865207a65726f206164647260448201526265737360e81b6064820152608401610731565b6001600160a01b03831660009081526002602052604090205461093190826109a2565b6001600160a01b0380851660009081526002602052604080822093909355908416815220546109609082610a08565b6001600160a01b038084166000818152600260205260409081902093909355915190851690600080516020610d78833981519152906107f09085815260200190565b6000828211156109f45760405162461bcd60e51b815260206004820152601e60248201527f536166654d6174683a207375627472616374696f6e206f766572666c6f7700006044820152606401610731565b6000610a008385610d4a565b949350505050565b600080610a158385610d32565b905083811015610a675760405162461bcd60e51b815260206004820152601b60248201527f536166654d6174683a206164646974696f6e206f766572666c6f7700000000006044820152606401610731565b9392505050565b6001600160a01b038216610ac45760405162461bcd60e51b815260206004820152601f60248201527f45524332303a206d696e7420746f20746865207a65726f2061646472657373006044820152606401610731565b600454610ad19082610a08565b6004556001600160a01b038216600090815260026020526040902054610af79082610a08565b6001600160a01b038316600081815260026020526040808220939093559151909190600080516020610d7883398151915290610b369085815260200190565b60405180910390a35050565b6001600160a01b038216610ba25760405162461bcd60e51b815260206004820152602160248201527f45524332303a206275726e2066726f6d20746865207a65726f206164647265736044820152607360f81b6064820152608401610731565b600454610baf90826109a2565b6004556001600160a01b038216600090815260026020526040902054610bd590826109a2565b6001600160a01b038316600081815260026020526040808220939093559151600080516020610d7883398151915290610b369085815260200190565b610c1b8282610b42565b610c4582336001600160a01b03851660009081526003602052604081206103879186919033610367565b5050565b80356001600160a01b0381168114610c6057600080fd5b919050565b600060208284031215610c7757600080fd5b610a6782610c49565b60008060408385031215610c9357600080fd5b610c9c83610c49565b9150610caa60208401610c49565b90509250929050565b600080600060608486031215610cc857600080fd5b610cd184610c49565b9250610cdf60208501610c49565b9150604084013590509250925092565b60008060408385031215610d0257600080fd5b610d0b83610c49565b946020939093013593505050565b600060208284031215610d2b57600080fd5b5035919050565b60008219821115610d4557610d45610d61565b500190565b600082821015610d5c57610d5c610d61565b500390565b634e487b7160e01b600052601160045260246000fdfeddf252ad1be2c89b69c2b068fc378daa952ba7f163c4a11628f55a4df523b3efa2646970667358221220ed009c06683fed1e63e9f852b481063f293e27568d5beda40c26b683bdb8144364736f6c63430008070033",
    "sourcePath": "c:/Users/STC/Documents/GitHub/TRON-Contratos/BEP20-BINANCE/BEP20-emitibles.sol",
    "compiler": {
        "name": "solc",
        "version": "0.8.7+commit.e28d00a7"
    },
    "functionHashes": {
        "addBlackList(address)": "0ecb93c0",
        "allowance(address,address)": "dd62ed3e",
        "approve(address,uint256)": "095ea7b3",
        "balanceOf(address)": "70a08231",
        "decreaseAllowance(address,uint256)": "a457c2d7",
        "destroyBlackFunds(address)": "f3bdc228",
        "increaseAllowance(address,uint256)": "39509351",
        "isBlackListed(address)": "e47d6060",
        "issue(uint256)": "cc872b66",
        "owner()": "8da5cb5b",
        "redeem(uint256)": "db006a75",
        "removeBlackList(address)": "e4997dc5",
        "totalSupply()": "18160ddd",
        "transfer(address,uint256)": "a9059cbb",
        "transferFrom(address,address,uint256)": "23b872dd",
        "transferOwnership(address)": "f2fde38b"
    },
    "gasEstimates": {
        "creation": {
            "codeDepositCost": "706600",
            "executionCost": "24982",
            "totalCost": "731582"
        },
        "external": {
            "addBlackList(address)": "27971",
            "allowance(address,address)": "infinite",
            "approve(address,uint256)": "24610",
            "balanceOf(address)": "2582",
            "decreaseAllowance(address,uint256)": "27083",
            "destroyBlackFunds(address)": "infinite",
            "increaseAllowance(address,uint256)": "27023",
            "isBlackListed(address)": "2542",
            "issue(uint256)": "infinite",
            "owner()": "2404",
            "redeem(uint256)": "infinite",
            "removeBlackList(address)": "27951",
            "totalSupply()": "2349",
            "transfer(address,uint256)": "infinite",
            "transferFrom(address,address,uint256)": "infinite",
            "transferOwnership(address)": "30484"
        },
        "internal": {
            "_approve(address,address,uint256)": "infinite",
            "_burn(address,uint256)": "infinite",
            "_burnFrom(address,uint256)": "infinite",
            "_mint(address,uint256)": "infinite",
            "_transfer(address,address,uint256)": "infinite"
        }
    }
}